:10153B000000000000000000000000000009600037
:10154B00000000000071310000007A7361773200F7
:10155B00006378646534330000207666747235005E
:10156B00006E62686779360000006D6A7537380067
:10157B00002C6B696F303900002E2F6C3B702D00E7
:10158B00000027005B3D000000000D5D005C0000CB
:10159B000000000000000800000000000000000038
:1015AB00007F000000001B00002B002D2A00000014
:1015BB0000000000000000000000000000097E0099
:1015CB00000000000051210000005A534157400019
:1015DB00004358444524230000205646545225000E
:1015EB00004E424847595E0000004D4A55262A00DE
:1015FB00003C4B494F292800003E3F4C3A505F00BE
:10160B00000022007B2B000000000D7D007C000001
:10161B0000000000000008000000000000000000B7
:10162B00007F000000001B00002B005F2A00000061
:0B1BCB00C10901530001540001550046
:0300130002198748
:10198700C0E0C083C082C0D075D010E5581424F8D9
:101997005010602314602C240A704E20964B055873
:1019A7008047E553C313F553309608435380A20984
:1019B700B3920905588032309605A209B3920905FA
:1019C70058802630961B300918AF5674602FF58261
:1019D700E43401F583E553F00556AF56EF540FF5A0
:1019E70056755800755300C209D0D0D082D083D025
:0219F700E032DC
:0B1E0900AF57E5566F6002D322C322E2
:101D2500E556655760FAAF5774602FF582E43401C4
:0E1D3500F583E0FF0557AE57EE540FF5572229
:10172500A907E55870FCC294FFEFC3943274809406
:101735008050030F80F3C295D294E4FFEFC3940564
:101745007480948050030F80F3E4FFFE0FEF700167
:101755000E4E600320B3F5EF4E7002FF22D201E476
:10176500FEFFE9139200300009D295A201B3920160
:101775008002C295E9C313F930B3FD20B3FD0FBF55
:1017850000010EEF64084E70D9A201929530B3FDA9
:1017950020B3FDD2952096FD20B3FD30B3FD3096E4
:1017A500FDE4FEFF0FEF70010E4E6006E55665572E
:1017B50060F2EF4E7002FF22121D25EF64FA7004ED
:0717C5007F0180027F00227A
:1007BC008F28E554B40D004003020B199007CFF8B5
:1007CC002828730207F60209BC020A71020A840285
:1007DC000AA6020AB3020ABF020ACC020AD9020A0A
:1007EC00E6020AF3020B00020B0DE52812165D0857
:1007FC008C01088F03089204089505089806089B3D
:10080C0007089E0908A10A08A40B08A70C08AA0D42
:10081C0008AD1108B21208B71408BC2908BF580853
:10082C00D05908D55A08D86608DB6908E66B08F178
:10083C006C08FC70090771091272091D7309207488
:10084C00092B75093676093977094978094C7909E4
:10085C004F7A095A7B095D7C09607D096B7E0981A1
:10086C0083087AE00880E10886F00000098475545A
:10087C0001020B1C755406020B1C755403020B1C55
:10088C007FA0227FA4227FA2227FA0227FA1227F91
:10089C00AB227FA9227FA7227FA5227FA3227F09DB
:1008AC0022D20C020B1CD20A020B1CD20B020B1C08
:1008BC007F20226355047FED121725EF7003020B86
:1008CC001C020979D20A020B1C7F0D227F0822E53B
:1008DC005530E1037F31227F9222E55530E1037FD1
:1008EC0034227F9622E55530E1037F37227F912217
:1008FC00E55530E1037F30227F9922E55530E10345
:10090C007F2E227F9A22E55530E1037F32227F949D
:10091C00227F3522E55530E1037F36227F9522E593
:10092C005530E1037F38227F93227F1B22635502CF
:10093C007FED121725EF7003020B1C80307FAA226B
:10094C007F9E22E55530E1037F33227F98227F9DE5
:10095C00227F9C22E55530E1037F39227F97226369
:10096C0055017FED121725EF7003020B1CAF5512CA
:10097C001725020B1C7FA622300A0DE55520E20834
:10098C00E5289015BB93FF22E52890153B93FFE5D6
:10099C005530E21B200A18EFFDD3946074809480CC
:1009AC00400DED947B74809480500474E02FFF22F2
:1009BC00E52812165D0A04110A09120A0F140A140A
:1009CC001F0A1A270A202F0A264A0A2C5A0A3269A9
:1009DC000A386B0A3E6C0A44700A4A710A50720A51
:1009EC0056740A5C750A627A0A687D09FEF000008A
:1009FC000A6E755402020B1CD20C020B19755404AE
:100A0C00020B1CD20B020B19E4F5547F8322E4F584
:100A1C00547F8422E4F5547F8522E4F5547F9B2295
:100A2C00E4F5547F9F22E4F5547F8822E4F5547F4B
:100A3C008B22E4F5547F8722E4F5547F8F22E4F572
:100A4C00547F9022E4F5547F8E22E4F5547F8C225F
:100A5C00E4F5547F8D22E4F5547F8A22E4F5547F2B
:100A6C008922020B19E52824EC600824037006C2C5
:100A7C000C8002C20B020B19E52824EF601824FD30
:100A8C00601024BB60082447700EC20A800AC20A98
:100A9C008006C20B8002C20C8073E52864E07005EE
:100AAC00755405806B8066E4F554E528647C7060B1
:100ABC007F8122E528641470057554078052804D9F
:100ACC00E5286477700575540880458040E52864F6
:100ADC00E1700575540980388033E52864F07005A1
:100AEC0075540A802B8026E5286414700575540B08
:100AFC00801E8019E52864F0700575540C801180F7
:100B0C000CE4F554E528647770067F8222E4F554F2
:030B1C007F002235
:101D9100E4F558F557F556C20BC20CC20AD28AD2E5
:061DA100B3D296D2AA2283
:03000E00A20B2220
:031E4D00A20C22C2
:031E5000A20A22C1
:10003E000A25730A0025732025750A00436F6C7517
:10004E006D6E3A00755370616365733A00257320C7
:10005E00253032752563253032752563253032758E
:10006E000A00557074696D653A005761746368646F
:10007E006F67207265736574733A0025732030784C
:10008E00253032580A0050303A0050313A00503282
:10009E003A0050333A0045787465726E616C207286
:1000AE00657365740A0A0025732025750A0A0050C7
:1000BE006F776572206F6E2072657365740A0A0021
:1000CE00496E697469616C697A696E672E2E2E0AA3
:1000DE000050532F32206B6579626F6172640A0093
:1000EE005053207072696E74776865656C0A0031C2
:1000FE003550207072696E74776865656C0A0031D0
:10010E003250207072696E74776865656C0A004EA5
:10011E006F207072696E74776865656C0A00313095
:10012E0050207072696E74776865656C0A00556E42
:10013E0061626C6520746F2064657465726D696EA2
:10014E0065207072696E74776865656C2E204173D8
:10015E0073756D696E67203132502E0A0045534318
:10016E00204820666F722068656C700A00526561C7
:10017E0064790A00576865656C77726974657220D8
:10018E005072696E7465722056657273696F6E2057
:10019E00332E352E300A666F72204D6178696D20D0
:1001AE004453383943343430204D43550A436F6D30
:1001BE0070696C6564206F6E204E6F762031322030
:1001CE00323032302061742030363A31323A35379F
:1001DE000A436F7079726967687420323031392D35
:1001EE0032303230204A696D204C6F6F730A000A2C
:1001FE000A436F6E74726F6C206368617261637410
:10020E006572733A0A42454C2030783037202020F0
:10021E0020202020207370696E7320746865207012
:10022E0072696E74776865656C0A42532020307867
:10023E00303820202020202020206E6F6E2D646507
:10024E00737472756374697665206261636B737023
:10025E006163650A544142203078303920202020D5
:10026E0020202020686F72697A6F6E74616C207422
:10027E0061620A4C46202030783041202020202018
:10028E002020207061706572207570206F6E652061
:10029E006C696E650A56542020307830422020203A
:1002AE0020202020207061706572207570206F6E86
:1002BE0065206C696E650A435220203078304420E8
:1002CE002020202020202072657475726E732063AA
:1002DE006172726961676520746F206C6566742047
:1002EE006D617267696E0A45534320307831422042
:1002FE002020202020202073656520446961626CD7
:10030E006F2036333020636F6D6D616E64732062C3
:10031E00656C6F772E2E2E0A0A446961626C6F200F
:10032E0036333020636F6D6D616E647320656D754D
:10033E006C617465643A0A3C4553433E3C4F3E2023
:10034E002020202020202073656C6563747320624A
:10035E006F6C64207072696E74696E670A3C4553E7
:10036E00433E3C263E202020202020202063616E2C
:10037E0063656C7320626F6C64207072696E746951
:10038E006E670A3C4553433E3C453E2020202020CC
:10039E0020202073656C6563747320636F6E7469BF
:1003AE006E756F757320756E6465726C696E696EAD
:1003BE00670A3C4553433E3C523E202020202020DD
:1003CE00202063616E63656C7320756E6465726C5C
:1003DE00696E696E670A3C4553433E3C583E202089
:1003EE0020202020202063616E63656C7320626F75
:1003FE00746820626F6C6420616E6420756E646533
:10040E00726C696E696E670A3C4553433E3C553EBD
:10041E00202020202020202068616C66206C696ED0
:10042E006520666565640A3C4553433E3C443E2068
:10043E00202020202020207265766572736520684A
:10044E00616C66206C696E6520666565640A3C4564
:10045E0053433E3C42533E20202020202020626108
:10046E00636B737061636520312F31323020696E9A
:10047E0063680A3C4553433E3C4C463E20202020B8
:10048E0020202072657665727365206C696E65201A
:10049E00666565640A3C53706163653E20666F72E3
:1004AE00206D6F72652C203C4553433E20746F20A7
:1004BE00657869742E2E2E000A0A5072696E746564
:1004CE007220636F6E74726F6C206E6F7420706129
:1004DE007274206F662074686520446961626C6F67
:1004EE002036333020656D756C6174696F6E3A0A13
:1004FE003C4553433E3C753E2020202020202020AA
:10050E0073656C65637473206D6963726F207061BF
:10051E007065722075700A3C4553433E3C643E2024
:10052E002020202020202073656C65637473206D5D
:10053E006963726F20706170657220646F776E0AE6
:10054E003C4553433E3C623E20202020202020206C
:10055E0073656C656374732062726F6B656E207564
:10056E006E6465726C696E696E670A3C4553433EF4
:10057E003C6C3E3C6E3E20202020206175746F2026
:10058E006C696E6566656564206F6E206F72206F94
:10059E0066660A3C4553433E3C703E202020202098
:1005AE0020202073656C656374732050696361202D
:1005BE0070697463680A3C4553433E3C653E202097
:1005CE0020202020202073656C6563747320456C99
:1005DE006974652070697463680A3C4553433E3CF8
:1005EE006D3E202020202020202073656C656374D2
:1005FE0073204D6963726F20456C69746520706954
:10060E007463680A0A446961676E6F737469637311
:10061E002F646562756767696E673A0A3C45534396
:10062E003E3C5E5A3E3C613E2020202073686F7730
:10063E002076657273696F6E20696E666F726D617A
:10064E0074696F6E0A3C4553433E3C5E5A3E3C63B2
:10065E003E2020202073686F7720746865206375B4
:10066E007272656E7420636F6C756D6E0A3C4553C5
:10067E00433E3C5E5A3E3C653E3C6E3E2074757277
:10068E006E20666C617368696E67207265642065A2
:10069E0072726F72204C4544206F6E206F72206F05
:1006AE0066660A3C4553433E3C5E5A3E3C6D3E20D8
:1006BE002020206D6F6E69746F7220636F6D6D7583
:1006CE006E69636174696F6E7320626574776565B8
:1006DE006E20626F617264730A3C4553433E3C5E0A
:1006EE005A3E3C703E3C6E3E2073686F77207468B5
:1006FE00652076616C7565206F6620506F72742070
:10070E006E2028302D33290A3C4553433E3C5E5A19
:10071E003E3C723E20202020726573657420746802
:10072E006520576865656C7772697465720A3C4519
:10073E0053433E3C5E5A3E3C733E2020202073685D
:10074E006F7720746865206D6963726F2D737061A9
:10075E00636520636F756E740A3C4553433E3C5E81
:10076E005A3E3C753E2020202073686F77207468B7
:10077E006520757074696D650A3C4553433E3C5E59
:10078E005A3E3C773E2020202073686F7720746895
:10079E0065206E756D626572206F66207761746379
:0E07AE0068646F67207265736574730A0A00D1
:101BD600C10DC10FC18E014900014701014A05012E
:101BE6004600014800014500014B00014200014347
:041BF60000014400A6
:03000B00021ADAFC
:101ADA00C0E0C0D075D008758AB0758C3CE5466008
:101AEA00021546300E1BAF42EF3395E0FEC3EF946A
:101AFA000AEE6480948050028001C3928492869296
:101B0A00850542AF42EF3395E0FEEF64144E701F35
:101B1A00F542300D02B284054BAF4BEF643C700FB7
:101B2A00F54B0545AF45EF643C7004F5450548D0D3
:041B3A00D0D0E032F5
:03000300020006F2
:05000600C289D2913215
:100E7B008F2BE543147003020F461470030210020C
:100E8B001470030210B414700302112724FE7003B4
:100E9B0002113624066003021155E52B7003021173
:100EAB005524F8601C14603014605C14606024FEE0
:100EBB00605F24F2606F2414706F1200167F07803E
:100ECB0061D3E5479401748094805003021155124D
:100EDB001D0315477F08804AE547854AF084C3E523
:100EEB004A95F0F52DFF121C69E4F52CC3E52D6432
:100EFB0080F8E52C648098400302115505477F204C
:100F0B00121E56052C80E51200267F0A8014020063
:100F1B0026121D43754701E4F54920800312002674
:100F2B007F0D021E5675430122E549FD7C00AF2B58
:100F3B0012186CAF2B121E56054722E52B12165DAD
:100F4B000FB5080FAF0A0FF11A0F8B260FA9440F1D
:100F5B0091450FF5480F854F0F97520FA3550F9DD6
:100F6B00580FBB620FEB640FC1650FF5680FD96D9E
:100F7B000FCD700FE5750000115543490102113477
:100F8B0053490602113443490202113453490102F9
:100F9B001134E4F549F54322121DBD021134121D23
:100FAB00D3021134121DF8021134121CE002113459
:100FBB00434904021134754D0A754F10754A0602E8
:100FCB001134754D0C754F10754A05021134754D62
:100FDB0008754F0C754A07021134121D610211522C
:100FEB00121D7A021152754302227BFF7A0179FDA1
:100FFB00120B8175430622E52B249D603024FE6085
:10100B003D24F5603D24FE603D14604424FE605198
:10101B0024FE607A241660030211557531FF753278
:10102B00017533827BFF7A00793E020B817531FFAC
:10103B0075320075334A75340085473580627543C8
:10104B0004227543032275C7AA75C75575D50F22A0
:10105B007531FF75320075335285513485523580A9
:10106B003F7531FF753200753370AF487534008FA3
:10107B003575363AAF457537008F3875393AAF4B02
:10108B00753A008F3B7BFF7A00795B021142753119
:10109B00FF7532007533789003F0E0753400F53549
:1010AB007BFF7A007943021142E52B24CF60251494
:1010BB00603A14604F240360030211557531FF75BC
:1010CB003200753394AF807534008F357BFF7A0017
:1010DB00798980637531FF753200753398AF9075E0
:1010EB0034008F357BFF7A007989804B7531FF7522
:1010FB00320075339CAFA07534008F357BFF7A00BF
:10110B00798980337531FF7532007533A0AFB075B7
:10111B0034008F357BFF7A007989801BE52B30E01B
:10112B0004D20D8004C20DD284801CE52B64207088
:10113B000B7BFF7A0479C6120B81800BE52B641BAA
:0B114B0070087F0D121E56E4F54322D1
:10134B008F2812000E505CE52812165D1385421390
:10135B008C43139549139C5513A35A138562138C15
:10136B0063139569139C7513A37A13A88D13AB8E16
:10137B0013A89313AB940000153A1200166349019E
:10138B0022120016A20FB3920F2212001663490409
:10139B0022120016634902227F1A021537021D61C1
:1013AB00021D7A121E4D500302153AE52812165DE6
:1013BB0014600814220914690D14A71B146D8B14E7
:1013CB007C8C14978D14998E13F890149793149911
:1013DB0094147C95146D9613F89A14AC9B14C49CBE
:1013EB0014DC9D14F49E14699F0000150CE54470E9
:1013FB000302153A154474002544F582E43401F5D3
:10140B0083E0FF121B8715477F08121E567F2012A1
:10141B001E567F08021E56E547854AF084C3E54AEF
:10142B0095F0F52AFF121C69E4F529E529C3952AE5
:10143B00400302153A05477F20121E56AF44054460
:10144B007E00EF543F2400F582EE3401F5837420C7
:10145B00F0052980D6E544700302153A800B7F0D09
:10146B00802EE544700302153A7F08120E7B15445B
:10147B00227F20120E7BAF4405447E00EF543F24A5
:10148B0000F582EE3401F5837420F02280057F1B7A
:10149B00120E7B7F0A120E7BE4F544227F1B021592
:1014AB0037AF4405447E00EF543F2400F582EE3401
:1014BB0001F583742FF0FF8073AF4405447E00EF7A
:1014CB00543F2400F582EE3401F583742AF0FF803B
:1014DB005BAF4405447E00EF543F2400F582EE34AD
:1014EB0001F583742DF0FF8043AF4405447E00EF7C
:1014FB00543F2400F582EE3401F583742BF0FF800A
:10150B002BAF287E00D3EF941F748094804020EF84
:10151B00947F748094805017AF440544EF543F245C
:10152B0000F582EE3401F583E528F0FF120E7B22E5
:10115600E4F527121E3343C401C291D29075A0FF55
:10116600D288D2A8758AB0758C3CE58954F04401C2
:10117600F589D2A9D28C121D917F807E257D007CB7
:1011860000121A6A121DA7D2AF7531FF75320175AA
:1011960033827BFF7A00793E120B81E5D8544424D2
:1011A600FC601324C4602E2440600302123D7BFFC2
:1011B6007A0079A4801A7531FF75320075337890FC
:1011C60003F0E004F0753400F5357BFF7A0079B55D
:1011D600120B8180627BFF7A0079BD120B817BFF47
:1011E6007A0079CE120B81E49003F0F0A3F07546F5
:1011F6008CE5466042121E1F50F7121CBD8E258FCD
:1012060026E527146016146020240270E8E526B44B
:1012160021E3E525B401DE75270180D9E5266401C1
:101226004525700E75270280CC9003F1E526F075F2
:101236004614E4F52780BE121E095005121D2580AE
:10124600F67FFF121725EF601F754614E54670FC02
:10125600121E095013121D25EF64AA70F37BFF7A44
:101266000079DF120B8180E89003F1E024F0602022
:1012760024F0602D14603B24E160482438705575D5
:101286004D0A754F10754A067BFF7A0079EE80533A
:10129600754D08754F0C754A077BFF7A0079FD80FE
:1012A60042754D0A754F10754A067BFF7A01790D16
:1012B6008031754D0A754F10754A067BFF7A0179A4
:1012C6001D8020754D0C754F10754A057BFF7A0100
:1012D600792C800F754D0A754F10754A067BFF7A7B
:1012E60001793C120B817BFF7A01796B120B817BB2
:1012F600FF7A01797B120B81121DE77F03121C0A0C
:10130600C20ED285D286D284121E3C0524E52470F4
:1013160002052345237002B286121E145006121CC3
:101326003A120E7B30910EAFA0120E7BC2900000D7
:1013360000D290C291121E0950CE121D251207BC72
:0513460012134B80C3EF
:03002300021B3E7F
:101B3E00C0E0C083C082C0D075D018309904C2995D
:101B4E00D21230982BC298AF5A74002FF582E4341B
:101B5E0000F583E599F0055AAF5AEFF55A1559205D
:101B6E00B70EAF59C3EF9440748094805002D2B731
:091B7E00D0D0D082D083D0E03237
:101A6A008F2B8E2A8D298C28E4F55AF55BF559754A
:101A7A009850E589540F4420F589439610AC28AD57
:101A8A0029AE2AAF2B1216831AC5000009601AC0A4
:101A9A00000012C01ABE000025801AB900003840A2
:101AAA001AB40000708000001ABE758DF380147598
:101ABA008DE6800F800A758DB28008758D6480036B
:101ACA00758DD9D28ED29CD299C298D2ACC2B72285
:0B1E1400AF5BE55A6F6002D322C322CF
:101C3A00E55A655B60FAAF5B74002FF582E4340005
:101C4A00F583E0FF055BAE5BEEF55B055930B70E39
:0F1C5A00AE59EED39480748094804002C2B722BA
:081E45003012FD8F99C2122238
:031E5300021C3A34
:031E5600021E4524
:101DE70075C7AA75C755C2DE75C7AA75C755C2DAC2
:011DF70022C9
:091E2A0075C7AA75C755D2D9226B
:091E330075C7AA75C755C2D92272
:091E3C0075C7AA75C755D2D8225A
:101C0A00121E2AEF14600F14601614601D2403704C
:101C1A0019538E3F8017E58E543F4440F58E800D50
:101C2A00E58E543F4480F58E8003438EC0021E3CED
:1017CC0000494B3837393F4C2316363B0C0E572803
:1017DC00302E2F2C32313335342A4E50004D004AE6
:1017EC003D20121B1D1E110F141F212B18241A2211
:1017FC00153E17191C100D292D2613410040004FC2
:10180C000001590507600A5A085D560B0904025F6E
:10181C005C5203065E5B53555158540000000000A7
:10182C0000000000000000000000000000000000AC
:10183C00000000000000000000000000000000009C
:10184C0000003A000000004500000000000000000D
:10185C00443C4243000046000000000048470000A2
:0F1BFA00014D0A014F1002510000C110014C00B3
:03003B000219F9AE
:1019F900C0E0C0F0C083C082C0D075D01830C10427
:101A0900C2C1D21130C04FC2C0AFC17E0030C201C5
:101A19000E301008C210EF4E603C801EBE0108BF98
:101A29002105754C018002054CEF4E700DE54C7592
:101A3900F00212163BADF0ED601CAD4EED25E02431
:101A490040F582E43401F583EEF0A3EFF0054EAFE3
:101A59004EEF540FF54ED0D0D082D083D0F0D0E0E5
:011A6900324A
:101DA700E4F54EF550C2DFD2C7C2C6C2C5D2C4D20F
:061DB700C1C2C0D2AE2241
:061C9500C2857F217E01E3
:101C9B003011FDC2113092FDC2C4EE1392C3EFF5A9
:101CAB00C13011FDD2C4D2103092FD2092FD309282
:021CBB00FD2208
:0B1E1F00AF50E54E6F6002D322C322DB
:101CBD00E54E655060FAAF50EF25E02440F582E423
:101CCD003401F583E0FEA3E0FF0550AD50ED540F58
:031CDD00F550229D
:101D0300121C957F061E121C9BE4FF121C9BAF4DF9
:101D1300121C9BC3E552954DF552E5519EF551D2E8
:021D2300852217
:101CE000E5524551601C121C957F061E121C9BE498
:101CF000FF121C9B0F121C9BD285E55215527002DD
:031D000015512258
:101D4300121C957F061E121C9BE5515407FF121CA3
:0E1D53009BAF52121C9BE4F551F552D2852233
:0C001600121C957F071E121C9BD2852235
:101C6900EF854DF0A4FDACF0121C957F061E121CE9
:101C79009BEC54074480FF121C9BAF05121C9BED83
:0C1C89002552F552EC3551F551D2852260
:101B8700AD07121C957F061E121C9BE4FF121C9BBF
:101B9700AF4D121C9B7F210E121C9B7F041E121C33
:101BA7009BED9017AC93FF3395E0FE121C9BAF4D56
:101BB7007E00121C9BC3E552954DF552E5519EF5EB
:041BC70051D2852250
:10002600121C957F051E121C9BE54F4480FF121C77
:040036009BD28522B2
:101DF800121C957F051E121C9BAF4F121C9BD2858F
:011E080022B7
:101DBD00121C957F051E121C9BE54FC3134480FF1B
:061DCD00121C9BD28522CE
:101DD300121C957F051E121C9BE54FC313FF121C9B
:041DE3009BD28522E8
:101D6100121C957F051E121C9BE54F131313541F64
:091D71004480FF121C9BD2852264
:101D7A00121C957F051E121C9BE54F131313541F4B
:071D8A00FF121C9BD2852211
:10186C00AB07121C957F031E121C9BEB9017AC93BD
:10187C00FF3395E0FE121C9BED54066020EB6420B8
:10188C007004ED30E117E4FFFE121C9B7F210E1259
:10189C001C9B7F031E121C9B7F4F121C9BED30E088
:1018AC002B7F017E00121C9B7F210E121C9B7F0341
:1018BC001E121C9BEB9017AC93FF3395E0FE121C91
:1018CC009BE54D24FFFFE434FFFE8004AF4D7E000A
:1018DC00121C9BE54D2552F552E43551F551D3E5DB
:0F18EC00529427E55194054003121D43D28522E3
:030000000218FBE8
:0C18FB00787FE4F6D8FD75815B0219428D
:10163B00C2D530F707B2D563F0FF05F030E70CB237
:10164B00D5F4048463F0FF05F080018430D502F4F7
:02165B00042267
:10165D00D083D082F8E4937012740193700DA3A31C
:10166D0093F8740193F5828883E473740293686030
:06167D00EFA3A3A380DF30
:10168300D083D082E4937012740193700DA3A3935B
:10169300F8740193F5828883E4737402936C701277
:1016A3007403936D700C7404936E70067405936FDA
:0A16B30060DDA3A3A3A3A3A380CAD4
:100B1F00E53D2431F8E6053D22782E300702783185
:100B2F00E475F0011217150216BD2000EB7F2ED2CF
:100B3F00008018EF540F2490D43440D4FF30040BAE
:100B4F00EF24BFB41A0050032461FFE53E60021585
:100B5F003E0541E5417002054030070D782EE475E2
:100B6F00F001121715EF021703021E567403D20776
:100B7F008003E4C207F53D8B2E8A2F8930E4F53EC2
:100B8F00F540F541E53E60077F20120B5A80F57561
:100B9F003FFFC201C200C202C203C205C206C208A1
:100BAF00120B28FF700D3007057F00120B6BAF4142
:100BBF00AE4022B4255FC2D5C204120B28FF24D049
:100BCF00B40A00501A75F00A783E30D50508B6FF02
:100BDF000106C6A426F620D5047002D20380D924BC
:100BEF00CFB41A00EF5004C2E5D204020D6BD2014C
:100BFF0080C6D20080C0D20280BCD2D580BAD205C6
:100C0F0080B47F20120B5A2002077401B53E0040BA
:100C1F00F1120B1FFF120B5A020B93D208D2068050
:100C2F0095120B1FFB120B1FFA120B1FF94A4B7079
:100C3F0006793C7A0E7BFF20022EE53E602A7E006D
:100C4F008E827583001216D660060EEE653F70F029
:100C5F00C2D5EBC0E0EAC0E0E9C0E0EE120DB2D0C1
:100C6F00E0F9D0E0FAD0E0FB1216BDFF60AAEBC0AE
:100C7F00E0EAC0E0E9C0E0120B5AD0E02401F9D05D
:100C8F00E03400FAD0E0FBE53F0460DCD53FD980CB
:100C9F00877BFF7A0D79AED202809C791080027922
:100CAF0008C206C2088008D2D5790A8004790AC220
:100CBF00D5E53F047002F53FE4FAFDFEFF120B1F6E
:100CCF00FC7B08200113120B1FFD7B1030000A1252
:100CDF000B1FFE120B1FFF7B20EC3382D592D550DA
:100CEF0013C3E43000069FFFE49EFEE42001039D42
:100CFF00FDE49CFCE4CBF8C201EC700CCFCECDCC64
:100D0F00E824F8F870F38017C3EF33FFEE33FEEDEE
:100D1F0033FDEC33FCEB33FB994002FB0FD8E9EBCF
:100D2F00300105F8D0E0C448B201C0E00AEC4D4EE6
:100D3F004F78207B0070C2EAB53F0040BCC0E01284
:100D4F000DB4D0F0D0E0200104C4C0E0C4B201C0A3
:100D5F00F0120B43D0F0D5F0EB020B9312165D0C93
:100D6F0030530CAA580C014C0BFD420CAE4F0CB675
:0F0D7F00440CB6490C16430CBC550CA0460CA0F6
:100D8E00450CA0470E5C500C052D0C092E0C2C2B7F
:100D9E000C0D230C2A200E452A0BC54800000C24EE
:100DAE003F3F3F00790AA2D5200314300509B91040
:100DBE00020404B9080104A2D52006025001042041
:100DCE0002689202B53E005034C0E07F2030031915
:100DDE007F30A20272067205500F120E0BC202C2B3
:100DEE0006C205C2087F30800F300503E9C0E0124D
:100DFE000B5A300503D0E0F9D0E0B53ECC300517E4
:100E0E007F30B9100C120B5A7F583004077F788050
:100E1E0003B90803120B5A3002057F2D020B5A7FBD
:100E2E00202008F87F2B2006F322920280CF286E16
:100E3E00756C6C2900D201120B1F3001F8C20178BB
:100E4E003E30D50108F6020BC52D50434958120B02
:100E5E001F2403B405004001E4900E5793120B4B70
:0D0E6E00743A120B4BD203753E04020CAA1D
:10190700021156E493A3F8E493A34003F68001F28F
:1019170008DFF48029E493A3F85407240CC8C333E1
:10192700C4540F4420C8834004F456800146F6DFB0
:10193700E4800B0102040810204080901BCBE47E5A
:10194700019360BCA3FF543F30E509541FFEE493A5
:10195700A360010ECF54C025E060A840B8E493A36C
:10196700FAE493A3F8E493A3C8C582C8CAC583CA97
:10197700F0A3C8C582C8CAC583CADFE9DEE780BE4F
:011C090000DA
:1016BD00BB010689828A83E0225002E722BBFE022B
:0916CD00E32289828A83E493225E
:1016D600BB010CE58229F582E5833AF583E02250C9
:1016E60006E92582F8E622BBFE06E92582F8E22213
:0D16F600E58229F582E5833AF583E493222D
:10170300BB010689828A83F0225002F722BBFE01C5
:02171300F322BF
:10171500FAE6FB0808E6F925F0F618E6CA3AF622D5
:00000001FF
