:1016810000000000000000000000000000096000F0
:10169100000000000071310000007A7361773200B0
:1016A1000063786465343300002076667472350017
:1016B100006E62686779360000006D6A7537380020
:1016C100002C6B696F303900002E2F6C3B702D00A0
:1016D100000027005B3D000000000D5D005C000084
:1016E10000000000000008000000000000000000F1
:1016F100007F000000001B00002B002D2A000000CD
:1017010000000000000000000000000000097E0051
:10171100000000000051210000005A5341574000D1
:1017210000435844452423000020564654522500C6
:10173100004E424847595E0000004D4A55262A0096
:10174100003C4B494F292800003E3F4C3A505F0076
:10175100000022007B2B000000000D7D007C0000BA
:101761000000000000000800000000000000000070
:10177100007F000000001B00002B005F2A0000001A
:0B1C8700C109015900015A00015B0077
:03001300021B8A43
:101B8A00C0E0C0D075D010E55E1424F85010602370
:101B9A0014602C240A704220963F055E803BE5596A
:101BAA00C313F559309608435980A209B39209051F
:101BBA005E8026309605A209B39209055E801A3026
:101BCA00960F30090CAF5C055CEF540F245FF8A642
:0E1BDA0059755E00755900C209D0D0D0E032B6
:0B002600AF5DE55C6F6002D322C322D7
:101F0300E55C655D60FAAF5D055DEF540F245FF836
:031F1300E6FF22C4
:10185E00A907E55E70FCC294FFEFC39432748094C6
:10186E008050030F80F3C295D294E4FFEFC394052A
:10187E007480948050030F80F3E4FFFE0FEF70012D
:10188E000E4E600320B3F5EF4E7002FF22D201E43C
:10189E00FEFFE9139200300009D295A201B3920126
:1018AE008002C295E9C313F930B3FD20B3FD0FBF1B
:1018BE0000010EEF64084E70D9A201929530B3FD6F
:1018CE0020B3FDD2952096FD20B3FD30B3FD3096AA
:1018DE00FDE4FEFF0FEF70010E4E6006E55C655DE8
:1018EE0060F2EF4E7002FF22121F03EF64FA7004D3
:0718FE007F0180027F002240
:10083A008F28E55AB40D004003020B9790084DF833
:10084A00282873020874020A3A020AEF020B02020B
:10085A000B24020B31020B3D020B4A020B57020B0F
:10086A0064020B71020B7E020B8BE5281217A30997
:10087A000A01090D030910040913050916060919C5
:10088A0007091C09091F0A09220B09250C09280D49
:10089A00092B11093012093514093A29093D580959
:1008AA004E5909535A09566609596909646B096F01
:1008BA006C097A70098571099072099B73099E7493
:1008CA0009A97509B47609B77709C77809CA7909F0
:1008DA00CD7A09D87B09DB7C09DE7D09E97E09FF2F
:1008EA008308F8E008FEE10904F000000A02755ADC
:1008FA0001020B9A755A06020B9A755A03020B9A51
:10090A007FA0227FA4227FA2227FA0227FA1227F12
:10091A00AB227FA9227FA7227FA5227FA3227F095C
:10092A0022D20C020B9AD20A020B9AD20B020B9A0F
:10093A007F2022635B047FED12185EEF7003020BC7
:10094A009A0209F7D20A020B9A7F0D227F0822E542
:10095A005B30E1037F31227F9222E55B30E1037F46
:10096A0034227F9622E55B30E1037F37227F912292
:10097A00E55B30E1037F30227F9922E55B30E103BA
:10098A007F2E227F9A22E55B30E1037F32227F9419
:10099A00227F3522E55B30E1037F36227F9522E50F
:1009AA005B30E1037F38227F93227F1B22635B0245
:1009BA007FED12185EEF7003020B9A80307FAA2235
:1009CA007F9E22E55B30E1037F33227F98227F9D61
:1009DA00227F9C22E55B30E1037F39227F972263E5
:1009EA005B017FED12185EEF7003020B9AAF5B1288
:1009FA00185E020B9A7FA622300A0DE55B20E208F8
:100A0A00E52890170193FF22E52890168193FFE5C8
:100A1A005B30E21B200A18EFFDD394607480948047
:100A2A00400DED947B74809480500474E02FFF2273
:100A3A00E5281217A30A82110A87120A8D140A924C
:100A4A001F0A98270A9E2F0AA44A0AAA5A0AB069B4
:100A5A000AB66B0ABC6C0AC2700AC8710ACE720A5C
:100A6A00D4740ADA750AE07A0AE67D0A7CF0000094
:100A7A000AEC755A02020B9AD20C020B97755A04A9
:100A8A00020B9AD20B020B97E4F55A7F8322E4F504
:100A9A005A7F8422E4F55A7F8522E4F55A7F9B2205
:100AAA00E4F55A7F9F22E4F55A7F8822E4F55A7FBB
:100ABA008B22E4F55A7F8722E4F55A7F8F22E4F5E8
:100ACA005A7F9022E4F55A7F8E22E4F55A7F8C22CF
:100ADA00E4F55A7F8D22E4F55A7F8A22E4F55A7F9B
:100AEA008922020B97E52824EC600824037006C2C9
:100AFA000C8002C20B020B97E52824EF601824FD34
:100B0A00601024BB60082447700EC20A800AC20A19
:100B1A008006C20B8002C20C8073E52864E070056F
:100B2A00755A05806B8066E4F55AE528647C706026
:100B3A007F8122E52864147005755A078052804D1A
:100B4A00E52864777005755A0880458040E5286471
:100B5A00E17005755A0980388033E52864F070051C
:100B6A00755A0A802B8026E52864147005755A0B7D
:100B7A00801E8019E52864F07005755A0C80118072
:100B8A000CE4F55AE528647770067F8222E4F55A68
:030B9A007F0022B7
:101E9900E4F55EF55DF55CC20BC20CC20AD28AD2CA
:061EA900B3D296D2AA227A
:03000E00A20B2220
:03003600A20C22F7
:031F7100A20A229F
:10003E000A25730A0025732025750A00436F6C7517
:10004E006D6E3A00755370616365733A00257320C7
:10005E00253032752563253032752563253032758E
:10006E000A00557074696D653A005761746368646F
:10007E006F67207265736574733A0025732030784C
:10008E00253032580A0050303A0050313A00503282
:10009E003A0050333A00506F776572206661696C92
:1000AE007572652072657365740A0A004578746509
:1000BE00726E616C2072657365740A0A0025732076
:1000CE0025750A0A00506F776572206F6E20726573
:1000DE007365740A0A00496E697469616C697A699C
:1000EE006E672E2E2E0A0050532F32206B657962CA
:1000FE006F6172640A00556E61626C6520746F20C8
:10010E0064657465726D696E65207072696E747760
:10011E006865656C2C20617373756D696E6720312F
:10012E0032502E0A005053207072696E74776865D3
:10013E00656C0A00313550207072696E747768658F
:10014E00656C0A00313250207072696E7477686582
:10015E00656C0A004E6F207072696E747768656503
:10016E006C0A00313050207072696E747768656564
:10017E006C0A00556E61626C6520746F2064657444
:10018E0065726D696E65207072696E7477686565EB
:10019E006C0A00556E61626C6520746F2064657424
:1001AE0065726D696E65206D6F64656C0A005768C7
:1001BE0065656C77726974657220330A00576865DD
:1001CE00656C77726974657220350A0057686565CB
:1001DE006C77726974657220360A00556E6B6E6F9D
:1001EE00776E20576865656C777269746572206DDD
:1001FE006F64656C0A00455343204820666F722079
:10020E0068656C700A0052656164790A00506F77F8
:10021E006572206661696C757265210A00576865A2
:10022E00656C777269746572205072696E7465724E
:10023E002056657273696F6E20332E342E330A6624
:10024E006F72204D6178696D2044533839433434D0
:10025E0030204D43550A436F6D70696C6564206F95
:10026E006E204D6172203032203230323020617477
:10027E002031303A32373A34390A436F7079726925
:10028E0067687420323031392D32303230204A696D
:10029E006D204C6F6F730A000A0A436F6E74726F93
:1002AE006C20636861726163746572733A0A4245C9
:1002BE004C203078303720202020202020207370D2
:1002CE00696E7320746865207072696E74776865E4
:1002DE00656C0A42532020307830382020202020B0
:1002EE002020206E6F6E2D64657374727563746951
:1002FE007665206261636B73706163650A54414277
:10030E0020307830392020202020202020686F7265
:10031E00697A6F6E74616C207461620A4C4620209B
:10032E003078304120202020202020207061706500
:10033E0072207570206F6E65206C696E650A56545A
:10034E002020307830422020202020202020706174
:10035E00706572207570206F6E65206C696E650A0F
:10036E00435220203078304420202020202020208E
:10037E0072657475726E73206361727269616765FE
:10038E0020746F206C656674206D617267696E0AE9
:10039E004553432030783142202020202020202039
:1003AE0073656520446961626C6F2036333020635B
:1003BE006F6D6D616E64732062656C6F772E2E2E7D
:1003CE000A0A446961626C6F2036333020636F6DA8
:1003DE006D616E647320656D756C617465643A0A47
:1003EE003C4553433E3C4F3E2020202020202020E1
:1003FE0073656C6563747320626F6C6420707269D0
:10040E006E74696E670A3C4553433E3C263E20207F
:10041E0020202020202063616E63656C7320626F44
:10042E006C64207072696E74696E670A3C45534342
:10043E003E3C453E202020202020202073656C6508
:10044E0063747320636F6E74696E756F7573207548
:10045E006E6465726C696E696E670A3C4553433E05
:10046E003C523E202020202020202063616E6365B8
:10047E006C7320756E6465726C696E696E670A3C8A
:10048E004553433E3C583E20202020202020206310
:10049E00616E63656C7320626F746820626F6C644A
:1004AE0020616E6420756E6465726C696E696E672C
:1004BE000A3C4553433E3C553E2020202020202020
:1004CE002068616C66206C696E6520666565640ADD
:1004DE003C4553433E3C443E2020202020202020FB
:1004EE00726576657273652068616C66206C696EE4
:1004FE006520666565640A3C4553433E3C42533E67
:10050E00202020202020206261636B737061636560
:10051E0020312F31323020696E63680A3C455343D7
:10052E003E3C4C463E2020202020202072657665E1
:10053E00727365206C696E6520666565640A3C534E
:10054E00706163653E20666F72206D6F72652C2040
:10055E003C4553433E20746F20657869742E2E2ED1
:10056E00000A0A5072696E74657220636F6E74723F
:10057E006F6C206E6F742070617274206F662074C1
:10058E00686520446961626C6F2036333020656D7A
:10059E00756C6174696F6E3A0A3C4553433E3C7507
:1005AE003E202020202020202073656C656374730C
:1005BE00206D6963726F2070617065722075700AAC
:1005CE003C4553433E3C643E2020202020202020EA
:1005DE0073656C65637473206D6963726F207061EF
:1005EE0070657220646F776E0A3C4553433E3C62E1
:1005FE003E202020202020202073656C65637473BC
:10060E002062726F6B656E20756E6465726C696EBA
:10061E00696E670A3C4553433E3C6C3E3C6E3E2041
:10062E00202020206175746F206C696E656665658B
:10063E0064206F6E206F72206F66660A3C455343CE
:10064E003E3C703E202020202020202073656C65CB
:10065E0063747320506963612070697463680A3C27
:10066E004553433E3C653E20202020202020207311
:10067E00656C6563747320456C697465207069746C
:10068E0063680A3C4553433E3C6D3E2020202020AB
:10069E0020202073656C65637473204D6963726FDF
:1006AE0020456C6974652070697463680A0A446930
:1006BE0061676E6F73746963732F646562756767C4
:1006CE00696E673A0A3C4553433E3C5E5A3E3C6176
:1006DE003E2020202073686F772076657273696FD5
:1006EE006E20696E666F726D6174696F6E0A3C453D
:1006FE0053433E3C5E5A3E3C633E202020207368AE
:10070E006F77207468652063757272656E742063EE
:10071E006F6C756D6E0A3C4553433E3C5E5A3E3CD3
:10072E00653E3C6E3E207475726E20666C61736819
:10073E00696E6720726564206572726F72204C4517
:10074E0044206F6E206F72206F66660A3C455343DD
:10075E003E3C5E5A3E3C6D3E202020206D6F6E6901
:10076E00746F7220636F6D6D756E69636174696FFE
:10077E006E73206265747765656E20626F61726458
:10078E00730A3C4553433E3C5E5A3E3C703E3C6EC3
:10079E003E2073686F77207468652076616C75658E
:1007AE00206F6620506F7274206E2028302D3329F2
:1007BE000A3C4553433E3C5E5A3E3C723E2020204E
:1007CE002072657365742074686520576865656C62
:1007DE007772697465720A3C4553433E3C5E5A3EDD
:1007EE003C753E2020202073686F7720746865204A
:1007FE00757074696D650A3C4553433E3C5E5A3EC6
:10080E003C773E2020202073686F77207468652027
:10081E006E756D626572206F6620776174636864B1
:0C082E006F67207265736574730A0A001E
:101C9200C10DC10FC18E01780001740101790501E6
:101CA2007600017500017300017700017200017A6C
:0A1CB20000016F00017000017100D5
:03000B00021B26AF
:101B2600C0E0C0D075D008758AB0758C3CE573608E
:101B3600021573300E1BAF6FEF3395E0FEC3EF94C3
:101B46000AEE6480948050028001C3928492869249
:101B560085056FAF6FEF3395E0FEEF64144E701F8F
:101B6600F56F300D02B284057AAF7AEF643C700FE0
:101B7600F57A0572AF72EF643C7004F5720577D0A2
:041B8600D0D0E032A9
:03003300021D406B
:101D4000C0E0C0F0C083C082C0D075D008C2DCC281
:101D50008430DC04C2DC80F9D2849003F174AAF0F0
:0E1D6000121F60D0D0D082D083D0F0D0E032FD
:03000300020006F2
:05000600C289D2913215
:1011F5008F2BE5701470030212C014700302137C68
:1012050014700302142E1470030214A124FE70033B
:101215000214B0240660030214CFE52B70030214F8
:10122500CF24F8601C14603014605C14606024FEE8
:10123500605F24F2606F2414706F1200167F0780C0
:1012450061D3E57494017480948050030214CF1225
:101255001E1115747F08804AE5748579F084C3E50D
:101265007995F0F52DFF121D9AE4F52CC3E52D6453
:1012750080F8E52C64809840030214CF05747F2024
:10128500121F77052C80E5121EDB7F0A8014021ED3
:10129500DB121E33757401E4F578208003121EDB22
:1012A5007F0D021F7775700122E578FD7C00AF2B5D
:1012B5001219A5AF2B121F77057422E52B1217A360
:1012C500132F0813290A136B1A1305261323441326
:1012D5000B45136F4812FF4F131152131D5513176A
:1012E50058133562136564133B65136F6813536DAB
:1012F500134770135F75000014CF4378010214AED5
:101305005378060214AE4378020214AE53780102F4
:1013150014AEE4F578F57022121EC50214AE121E45
:10132500EF0214AE121F270214AE121DEE0214AE08
:101335004378040214AE75430A75451075790602A3
:1013450014AE75430C7545107579050214AE7543D9
:101355000875450C7579070214AE121E510214CC9E
:10136500121E820214CC757002227BFF7A0279A6C6
:10137500120BFF75700622E52B249D603024FE605C
:101385003D24F5603D24FE603D14604424FE60511B
:1013950024FE607A241660030214CF7531FF75327E
:1013A5000275332B7BFF7A00793E020BFF7531FF07
:1013B50075320075334A75340085743580627570F1
:1013C50004227570032275C7AA75C75575D50F22F6
:1013D5007531FF7532007533528557348558358020
:1013E5003F7531FF753200753370AF777534008FF7
:1013F5003575363AAF727537008F3875393AAF7A29
:10140500753A008F3B7BFF7A00795B0214BC75311E
:10141500FF7532007533789003F0E0753400F535CB
:101425007BFF7A0079430214BCE52B24CF60251499
:10143500603A14604F240360030214CF7531FF75C1
:101445003200753394AF807534008F357BFF7A0099
:10145500798980637531FF753200753398AF907562
:1014650034008F357BFF7A007989804B7531FF75A4
:10147500320075339CAFA07534008F357BFF7A0041
:10148500798980337531FF7532007533A0AFB0753A
:1014950034008F357BFF7A007989801BE52B30E09E
:1014A50004D20D8004C20DD284801CE52B6420700B
:1014B5000B7BFF7A05796F120BFF800BE52B641B05
:0B14C50070087F0D121F77E4F5702205
:1014D0008F2812000E505CE5281217A3150A42153A
:1014E0001143151A4915215515285A150A62151167
:1014F00063151A6915217515287A152D8D15308EED
:10150000152D931530940000168012001663780193
:1015100022120016A20FB3920F2212001663780453
:1015200022120016637802227F1A02167D021E51D3
:10153000021E821200365003021680E5281217A3FD
:1015400015D60815A10915DF0D16141B15E38B150B
:10155000F28C16048D16068E157D901604931606D1
:101560009415F29515E396157D9A16189B16289CEE
:1015700016389D16489E15DF9F00001658E57170BD
:10158000030216801571747E2571F8E6FF121CCCDB
:1015900015747F08121F777F20121F777F08021FA4
:1015A00077E5748579F084C3E57995F0F52AFF1223
:1015B0001D9AE4F529E529C3952A40030216800502
:1015C000747F20121F77AF710571EF543F247EF8AE
:1015D0007620052980DFE5717003021680800B7F7D
:1015E0000D8025E57170030216807F081211F51534
:1015F00071227F201211F5AF710571EF543F247EE7
:10160000F876202280057F1B1211F57F0A1211F552
:10161000E4F571227F1B8065AF710571EF543F24A3
:101620007EF8762F7F2F8055AF710571EF543F24E0
:101630007EF8762A7F2A8045AF710571EF543F24EA
:101640007EF8762D7F2D8035AF710571EF543F24E4
:101650007EF8762B7F2B8025AF287E00D3EF941F5A
:1016600074809480401AEF947F748094805011AFFE
:10167000710571EF543F247EF8A628AF281211F5AA
:011680002247
:100EF900E4F527121F5743C401D285D286D284C292
:100F090091D29075A0FFD2DDD288D2A8758AB0752A
:100F19008C3CE58954F04401F589D2A9D28C121E82
:100F2900997F807E25121BE8121EAFD2AF7531FF63
:100F390075320275332B7BFF7A00793E120BFFE580
:100F4900D8544424FC602E24C46049244060030220
:100F590010089003F1E064AA7BFF70067A0079A477
:100F690080047A0079BA120BFFE49003F1F0900340
:100F7900F0F00210087531FF75320075337890036F
:100F8900F0E004F0753400F5357BFF7A0079CB1277
:100F99000BFF806B7BFF7A0079D3120BFF7BFF7A03
:100FA9000079E4120BFFE49003F1F09003F0F0757F
:100FB900738CE5736049121F4350F7121E6A8E2520
:100FC9008F26E52714601914602814602D240370F6
:100FD900E5E526B421E0E525B401DB75270180D6D6
:100FE900E52664014525700575270280C9E4F527C2
:100FF90080C485267575270380BC75731480B71264
:1010090000265005121F0380F67FFF12185EEF605D
:101019001F757314E57370FC1200265013121F0319
:10102900EF64AA70F37BFF7A0079F5120BFF80E871
:10103900121F167F03121D10E5757063C2857F218B
:101049007E01121DCC7F017E00121DCCD2857573E5
:101059003CE5757023121F60E57370107BFF7A0100
:101069007904120BFF757520D20D800C121F4350A5
:10107900E0121E6A8F7580D9C2857F217E01121DFB
:10108900CC7F067E00121DCC7F807E00121DCC7F96
:10109900787E00121DCCD285757314E57370FCE55A
:1010A9007524F0602024F0602D14603B24E1604831
:1010B9002438705575430A7545107579067BFF7A92
:1010C900017933805375430875450C7579077BFFA2
:1010D9007A017942804275430A7545107579067B14
:1010E900FF7A017952803175430A75451075790681
:1010F9007BFF7A017962802075430C7545107579FB
:10110900057BFF7A017971800F75430A7545107562
:1011190079067BFF7A017981120BFFC2857F217ED7
:1011290001121DCCE4FFFE121DCCD28575730AE5B0
:10113900767056121F60E57370107BFF7A0179A1F2
:10114900120BFF7576FFD20D803F121F4350E0123C
:101159001E6A8F76E57624DB600F146014242070F4
:101169001B7BFF7A0179BC800E7BFF7A0179CB80EA
:10117900067BFF7A0179DA120BFF80B37BFF7A01D4
:1011890079E9120BFFD20D80A6C20E7BFF7A027994
:1011990004120BFF7BFF7A027914120BFF121F60F6
:1011A9000524E5247002052345237002B2869003C5
:1011B900F1E064AA700AF07BFF7A02791B120BFF37
:1011C900121F385006121D6E1211F530910EAFA084
:1011D9001211F5C290000000D290C291120026505F
:0C11E900BC121F0312083A1214D080B18F
:03002300021C417B
:101C4100C0E0C083C082C0D075D018309904C29959
:101C5100D212309828C298AF7C057C7E0074002F88
:101C6100F582EE3400F583E599F0157B20B70EAFD0
:101C71007BC3EF9440748094805002D2B7D0D0D00F
:061C810082D083D0E032A6
:101BE800E4F57CF57DF57B759850E589540F442024
:101BF800F589439610EF8EF01217C91C2C09601C4A
:101C08002712C01C2525801C2038401C1B70800012
:101C1800001C25758DF38014758DE6800F800A757C
:101C28008DB28008758D648003758DD9D28ED29C53
:091C3800D299C298D2ACC2B722C5
:0B1F3800AF7DE57C6F6002D322C32266
:101D6E00E57C657D60FAAF7D057D7E0074002FF504
:101D7E0082EE3400F583E0FF057B30B70EAE7BEECE
:0C1D8E00D39480748094804002C2B7227D
:081F69003012FD8F99C2122213
:031F7400021D6EDD
:031F7700021F69DD
:101F160075C7AA75C755C2DE75C7AA75C755C2DA91
:011F26002298
:091F4E0075C7AA75C755D2D92246
:091F570075C7AA75C755C2D9224D
:091F600075C7AA75C755D2D82235
:101D1000121F4EEF14600F14601614601D24037020
:101D200019538E3F8017E58E543F4440F58E800D49
:101D3000E58E543F4480F58E8003438EC0021F60C1
:1019050000494B3837393F4C2316363B0C0E5728C8
:10191500302E2F2C32313335342A4E50004D004AAB
:101925003D20121B1D1E110F141F212B18241A22D6
:10193500153E17191C100D292D2613410040004F87
:101945000001590507600A5A085D560B0904025F34
:101955005C5203065E5B535551585400000000006D
:101965000000000000000000000000000000000072
:101975000000000000000000000000000000000062
:1019850000003A00000000450000000000000000D3
:10199500443C424300004600000000004847000068
:0F1CBC0001430A01451002570000C11001420008
:03003B00021AC0E6
:101AC000C0E0C0F0C083C082C0D075D01830C1045F
:101AD000C2C1D21130C044C2C0AFC17E0030C20109
:101AE0000E301008C210EF4E6031801EBE0108BFDC
:101AF000210575420180020542EF4E700DE54275E9
:101B0000F002121781ADF0ED6011AD440544ED54C3
:101B10000725E02447F8A61E08A61FD0D0D082D003
:061B200083D0F0D0E0329A
:101EAF00E4F544F546C2DFD2C7C2C6C2C5D2C4D21A
:061EBF00C1C2C0D2AE2238
:061DC600C2857F217E01B1
:101DCC003011FDC2113092FDC2C4EE1392C3EFF577
:101DDC00C13011FDD2C4D2103092FD2092FD309250
:021DEC00FD22D6
:0B1F4300AF46E5446F6002D322C322CA
:101E6A00E544654660FAAF460546EF540725E02487
:081E7A0047F8E6FE08E6FF222E
:101E1100121DC67F061E121DCCE4FF121DCCAF435E
:101E2100121DCCC3E5589543F558E5579EF557D299
:021E3100852208
:101DEE00E5584557601C121DC67F061E121DCCE419
:101DFE00FF121DCC0F121DCCD285E558155870025E
:031E0E0015572243
:101E3300121DC67F061E121DCCE5575407FF121D47
:0E1E4300CCAF58121DCCE4F557F558D28522CD
:0C001600121DC67F071E121DCCD28522D1
:101D9A00EF8543F0A4FDACF0121DC67F061E121D8E
:101DAA00CCEC54074480FF121DCCAF05121DCCEDBC
:0C1DBA002558F558EC3557F557D2852216
:101CCC00AD07121DC67F061E121DCCE4FF121DCCE3
:101CDC00AF43121DCC7F210E121DCC7F041E121D92
:101CEC00CCED9018E593FF3395E0FE121DCCAF437D
:101CFC007E00121DCCC3E5589543F558E5579EF56B
:041D0C0057D2852203
:101EDB00121DC67F051E121DCCE5454480FF121D49
:041EEB00CCD28522AE
:101F2700121DC67F051E121DCCAF45121DCCD285D2
:011F37002287
:101EC500121DC67F051E121DCCE545C3134480FFB8
:061ED500121DCCD2852293
:101EEF00121DC67F051E121DCCE545C313FF121D23
:041EFF00CCD285229A
:101E5100121DC67F051E121DCCE545131313541F19
:091E61004480FF121DCCD2852241
:101E8200121DC67F051E121DCCE545131313541FE8
:071E9200FF121DCCD28522D6
:1019A500AB07121DC67F031E121DCCEB9018E593E5
:1019B500FF3395E0FE121DCCED54066020EB64204C
:1019C5007004ED30E117E4FFFE121DCC7F210E12ED
:1019D5001DCC7F031E121DCC7F4F121DCCED30E0B8
:1019E5002B7F017E00121DCC7F210E121DCC7F03A3
:1019F5001E121DCCEB9018E593FF3395E0FE121DEA
:101A0500CCE54324FFFFE434FFFE8004AF437E00B2
:101A1500121DCCE5432558F558E43557F557D3E560
:0F1A2500589427E55794054003121E33D28522AB
:03000000021A34AD
:0C1A3400787FE4F6D8FD7581BD021A7BB6
:10178100C2D530F707B2D563F0FF05F030E70CB2F0
:10179100D5F4048463F0FF05F080018430D502F4B0
:0217A100042220
:1017A300D083D082F8E4937012740193700DA3A3D5
:1017B30093F8740193F5828883E4737402936860E9
:0617C300EFA3A3A380DFE9
:1017C900D083D082F8E4937012740193700DA3A3AF
:1017D90093F8740193F5828883E473740293B5F0E6
:0D17E900067403936860E9A3A3A3A380D84E
:100B9D00E53D2431F8E6053D22782E300702783107
:100BAD00E475F00112184E0217F62000EB7F2ED2DD
:100BBD00008018EF540F2490D43440D4FF30040B30
:100BCD00EF24BFB41A0050032461FFE53E60021507
:100BDD003E0541E5417002054030070D782EE47564
:100BED00F00112184EEF02183C021F777403D20762
:100BFD008003E4C207F53D8B2E8A2F8930E4F53E44
:100C0D00F540F541E53E60077F20120BD880F57564
:100C1D003FFFC201C200C202C203C205C206C20822
:100C2D00120BA6FF700D3007057F00120BE9AF41C7
:100C3D00AE4022B4255FC2D5C204120BA6FF24D04C
:100C4D00B40A00501A75F00A783E30D50508B6FF83
:100C5D000106C6A426F620D5047002D20380D9243D
:100C6D00CFB41A00EF5004C2E5D204020DE9D2014F
:100C7D0080C6D20080C0D20280BCD2D580BAD20547
:100C8D0080B47F20120BD82002077401B53E0040BE
:100C9D00F1120B9DFF120BD8020C11D208D2068057
:100CAD0095120B9DFB120B9DFA120B9DF94A4B7081
:100CBD000679BA7A0E7BFF20022EE53E602A7E0071
:100CCD008E8275830012180F60060EEE653F70F070
:100CDD00C2D5EBC0E0EAC0E0E9C0E0EE120E30D0C4
:100CED00E0F9D0E0FAD0E0FB1217F6FF60AAEBC0F6
:100CFD00E0EAC0E0E9C0E0120BD8D0E02401F9D061
:100D0D00E03400FAD0E0FBE53F0460DCD53FD9804C
:100D1D00877BFF7A0E792CD202809C791080027924
:100D2D0008C206C2088008D2D5790A8004790AC2A1
:100D3D00D5E53F047002F53FE4FAFDFEFF120B9D71
:100D4D00FC7B08200113120B9DFD7B1030000A1255
:100D5D000B9DFE120B9DFF7B20EC3382D592D5505F
:100D6D0013C3E43000069FFFE49EFEE42001039DC3
:100D7D00FDE49CFCE4CBF8C201EC700CCFCECDCCE5
:100D8D00E824F8F870F38017C3EF33FFEE33FEED70
:100D9D0033FDEC33FCEB33FB994002FB0FD8E9EB51
:100DAD00300105F8D0E0C448B201C0E00AEC4D4E68
:100DBD004F78207B0070C2EAB53F0040BCC0E01206
:100DCD000E32D0F0D0E0200104C4C0E0C4B201C0A6
:100DDD00F0120BC1D0F0D5F0EB020C111217A30CD1
:100DED00AE530D28580C7F4C0C7B420D2C4F0D34FF
:0F0DFD00440D34490C94430D3A550D1E460D1EFE
:100E0C00450D1E470EDA500C832D0C872E0CAA2B89
:100E1C000C8B230CA8200EC32A0C434800000CA2F8
:100E2C003F3F3F00790AA2D5200314300509B910C1
:100E3C00020404B9080104A2D520060250010420C2
:100E4C0002689202B53E005034C0E07F2030031996
:100E5C007F30A20272067205500F120E89C202C2B6
:100E6C0006C205C2087F30800F300503E9C0E012CE
:100E7C000BD8300503D0E0F9D0E0B53ECC300517E7
:100E8C007F30B9100C120BD87F583004077F788054
:100E9C0003B90803120BD83002057F2D020BD87F43
:100EAC00202008F87F2B2006F322920280CF286E98
:100EBC00756C6C2900D201120B9D3001F8C20178BF
:100ECC003E30D50108F6020C432D50434958120B05
:100EDC009D2403B405004001E4900ED593120BC978
:0D0EEC00743A120BC9D203753E04020D28A2
:101A4000020EF9E493A3F8E493A34003F68001F2B5
:101A500008DFF48029E493A3F85407240CC8C333A7
:101A6000C4540F4420C8834004F456800146F6DF76
:101A7000E4800B0102040810204080901C87E47E63
:101A8000019360BCA3FF543F30E509541FFEE4936B
:101A9000A360010ECF54C025E060A840B8E493A332
:101AA000FAE493A3F8E493A3C8C582C8CAC583CA5D
:101AB000F0A3C8C582C8CAC583CADFE9DEE780BE15
:011CCB000018
:1017F600BB010689828A83E0225002E722BBFE02F1
:09180600E32289828A83E4932223
:10180F00BB010CE58229F582E5833AF583E022508E
:10181F0006E92582F8E622BBFE06E92582F8E222D8
:0D182F00E58229F582E5833AF583E49322F2
:10183C00BB010689828A83F0225002F722BBFE018B
:02184C00F32285
:10184E00FAE6FB0808E6F925F0F618E6CA3AF6229B
:00000001FF
